:020000040000FA
:100000000C94C1010C94A1090C947A090C94E90197
:100010000C94E9010C94E9010C94E9010C94C809D1
:100020000C94E9010C94E9010C94E9010C94A20AE6
:100030000C94E9010C94E9010C94E9010C94E90198
:100040000C9430090C94E9010C94700A0C944A0A3F
:100050000C94E9010C94E9010C94E9010C94E90178
:100060000C945E0B0C94E90100407A10F35A00A046
:10007000724E18090010A5D4E80000E87648170071
:1000800000E40B54020000CA9A3B000000E1F505B1
:10009000000080969800000040420F000000A086FB
:1000A00001000000102700000000E803000000002D
:1000B0006400000000000A000000000001000000D1
:1000C00000002C76D888DC674F0823DFC1DFAE59EB
:1000D000E1B1B796E5E3E453C63AE651997696E87E
:1000E000E6C28426EB898C9B62ED407C6FFCEFBC02
:1000F0009C9F40F2BAA56FA5F490055A2AF75C932D
:100100006B6CF9676DC11BFCE0E40D47FEF520E662
:10011000B500D0ED902E0300943577050080841E45
:10012000080000204E0A000000C80C333333330FA0
:10013000986E12831141EF8D2114893BE65516CF3D
:10014000FEE6DB18D1844B381BF77C1D901DA4BB49
:10015000E424203284725E228100C9F124ECA1E5FE
:100160003D27025B4248313735305D204552524FC2
:10017000523A20756E646566696E656420657272B8
:100180006F72005B4248313735305D204552524F27
:10019000523A206F74686572206572726F72005BEC
:1001A0004248313735305D204552524F523A207225
:1001B00065636569766564204E41434B206F6E2010
:1001C0007472616E736D6974206F6620646174610E
:1001D000005B4248313735305D204552524F523A2C
:1001E000207265636569766564204E41434B206FDC
:1001F0006E207472616E736D6974206F6620616425
:100200006472657373005B4248313735305D204559
:1002100052524F523A20746F6F206C6F6E67206697
:100220006F72207472616E736D6974206275666698
:100230006572005B4248313735305D204552524F80
:10024000523A20756E646566696E656420657272E7
:100250006F72005B4248313735305D204552524F56
:10026000523A206F74686572206572726F72005B1B
:100270004248313735305D204552524F523A207254
:1002800065636569766564204E41434B206F6E203F
:100290007472616E736D6974206F6620646174613D
:1002A000005B4248313735305D204552524F523A5B
:1002B000207265636569766564204E41434B206F0B
:1002C0006E207472616E736D6974206F6620616454
:1002D0006472657373005B4248313735305D204589
:1002E00052524F523A20746F6F206C6F6E672066C7
:1002F0006F72207472616E736D69742062756666C8
:100300006572005B4248313735305D20446576695F
:100310006365206973206E6F7420636F6E66696712
:1003200075726564210000000000240027002A0087
:1003300000000000250028002B0000000000230022
:100340002600290004040404040404040202020236
:100350000202030303030303010204081020408088
:100360000102040810200102040810200000000807
:10037000000201000003040700000000000000006C
:100380007D0C11241FBECFEFD8E0DEBFCDBF11E042
:10039000A0E0B1E0E0EEFEE202C005900D92AA35C9
:1003A000B107D9F723E0AAE5B1E001C01D92A1335E
:1003B000B207E1F711E0C1ECD1E004C02197FE01E2
:1003C0000E946817C03CD107C9F70E94370D0C94F2
:1003D0006E170C940000833081F028F4813099F07E
:1003E0008230A9F008958730A9F08830C9F08430B0
:1003F000B1F4809180008F7D03C0809180008F7761
:1004000080938000089584B58F7784BD089584B566
:100410008F7DFBCF8091B0008F778093B0000895DF
:100420008091B0008F7DF9CFCF93DF93282F30E0FC
:10043000F901E459FC4F8491F901E85AFC4FD49139
:10044000F901EC5BFC4FC491CC23A1F081110E9417
:10045000EB01EC2FF0E0EE0FFF1FE65CFC4FA591E7
:10046000B491EC91ED2381E090E009F480E0DF911C
:10047000CF91089580E090E0FACF1F93CF93DF9360
:10048000282F30E0F901E459FC4F8491F901E85A32
:10049000FC4FD491F901EC5BFC4FC491CC23A9F043
:1004A000162F81110E94EB01EC2FF0E0EE0FFF1FE1
:1004B000E05DFC4FA591B4918FB7F894EC911111C8
:1004C00008C0D095DE23DC938FBFDF91CF911F91C1
:1004D0000895DE2BF8CFCF93DF9390E0FC01E85A2C
:1004E000FC4F24918C5B9C4FFC0184918823C9F0C4
:1004F00090E0880F991FFC01EA5DFC4FA591B49133
:10050000FC01E05DFC4FC591D49161110DC09FB716
:10051000F8948C91209582238C93888128232883BA
:100520009FBFDF91CF910895623051F49FB7F89447
:100530003C91822F809583238C93E8812E2BEFCFE3
:100540008FB7F894EC912E2B2C938FBFEACF8E307F
:1005500008F08E508770806480937C0080917A00D0
:10056000806480937A0080917A0086FDFCCF809130
:1005700078009091790008953FB7F8948091EF0149
:100580009091F001A091F101B091F20126B5A89BE4
:1005900005C02F3F19F00196A11DB11D3FBFBA2F15
:1005A000A92F982F8827BC01CD01620F711D811DD5
:1005B000911D42E0660F771F881F991F4A95D1F75A
:1005C00008958F929F92AF92BF92CF92DF92EF9257
:1005D000FF926B017C010E94BC024B015C01C114C3
:1005E000D104E104F104B9F00E94BC026819790950
:1005F0008A099B09683E73408105910580F321E0DB
:10060000C21AD108E108F10888EE880E83E0981E2E
:10061000A11CB11CE4CFFF90EF90DF90CF90BF9072
:10062000AF909F908F900895089508950895AF9288
:10063000BF92CF92DF92EF92FF920F931F93CF93CF
:10064000DF936C017B018B01040F151FEB015E0131
:10065000AE18BF08C017D10759F06991D601ED91C6
:10066000FC910190F081E02DC6010995892B79F765
:10067000C501DF91CF911F910F91FF90EF90DF9017
:10068000CF90BF90AF900895FC01538D448D252FDE
:1006900030E0842F90E0821B930B541710F0CF961C
:1006A000089501970895FC01918D828D981761F04E
:1006B000A28DAE0FBF2FB11D5D968C91928D9F5F65
:1006C0009F73928F90E008958FEF9FEF0895FC0144
:1006D000918D828D981731F0828DE80FF11D858DF7
:1006E00090E008958FEF9FEF0895FC01918D228D8A
:1006F000892F90E0805C9F4F821B91098F7399270F
:10070000089583E492E00E94750321E0892B09F4A7
:1007100020E0822F089580E090E0892B29F00E944C
:10072000810381110C9400000895FC01A48DA80F91
:10073000B92FB11DA35ABF4F2C91848D90E0019623
:100740008F739927848FA689B7892C93A089B18943
:100750008C91837080648C93938D848D981306C0E4
:100760000288F389E02D80818F7D80830895EF9248
:10077000FF920F931F93CF93DF93EC0181E0888F5B
:100780009B8D8C8D98131AC0E889F989808185FF2B
:1007900015C09FB7F894EE89FF896083E889F989CD
:1007A00080818370806480839FBF81E090E0DF91CF
:1007B000CF911F910F91FF90EF900895F62E0B8D22
:1007C00010E00F5F1F4F0F731127E02E8C8D8E11DD
:1007D0000CC00FB607FCFACFE889F989808185FF44
:1007E000F5CFCE010E949503F1CFEB8DEC0FFD2FDD
:1007F000F11DE35AFF4FF0829FB7F8940B8FEA89FF
:10080000FB8980818062CFCFCF93DF93EC01888D0D
:100810008823B9F0AA89BB89E889F9898C9185FD7B
:1008200003C0808186FD0DC00FB607FCF7CF8C9109
:1008300085FFF2CF808185FFEDCFCE010E94950329
:10084000E9CFDF91CF910895CF92DF92EF92FF929F
:10085000CF93DF93EC01603282E07807CCF5653B03
:10086000710514F064EB70E0898128E830E0281B02
:10087000310987FD3395220F331F220F331F690182
:10088000330FEE08FF088A8128E532E0281B310982
:1008900087FD3395220F331F220F331F032E000CC9
:1008A000440B550B2C193D094E095F09DB0177FFFD
:1008B00002C0B0E0A0E00E94271524EB30E040E049
:1008C00050E00E94FD14C20ED31EE41EF51EB601B8
:1008D000E881EC3070F5298188E890E0821B91096D
:1008E00027FD9395880F991F880F991F681779071F
:1008F0007CF02A8188E592E0821B910927FD93957F
:10090000880F991F880F991F681779070CF4CB017E
:100910000297880F991F4FB7F8942E2F30E0F901F6
:10092000EE0FFF1FE20FF31FE052FD4F9283818312
:100930004FBFDF91CF91FF90EF90DF90CF90089560
:100940001F93CF93DF93EC01162F88818C3008F032
:100950004EC061E0812F0E946B028881282F30E019
:10096000F901EE0FFF1FE20FF31FE052FD4F1F735F
:100970006081607C612B608319821A822CE0622F77
:100980000E945C17829FB001112430E020E0AB018F
:10099000420F531FFA01EE0FFF1FE40FF51FE05245
:1009A000FD4F908196FD16C02F5F3F4F2C303105D3
:1009B00071F781110FC01092800082E08093810056
:1009C0001092850010928400B19A80916F0082602D
:1009D00080936F00E8818E2F90E0FC01EE0FFF1FE7
:1009E000E80FF91FE052FD4F808180648083888189
:1009F000DF91CF911F910895DC01ED91FC91019061
:100A0000F081E02D0994089520918501260F332768
:100A1000331F21323105ECF420911902FC0190E0E2
:100A200080E0243069F082E00895A0918501219151
:100A3000AC014B595E4FA40FB52FB11D2C930196FD
:100A4000861798F380918501680F6093850180E097
:100A5000089581E008951092190281E080931802B0
:100A60001092F30161E082E10E943D0261E083E1C6
:100A70000E943D02E9EBF0E080818E7F80838081DF
:100A80008D7F808388E48093B80085E48093BC00E8
:100A90000895CF93DF9391E0909364018823B9F098
:100AA000C091B800D091BA008091BC008A7B80933D
:100AB000BC0060E082E10E943D0260E083E10E94B0
:100AC0003D020E942B05D093BA00C093B800DF917D
:100AD000CF9108958F929F92AF92BF92CF92DF9263
:100AE000EF92FF920F931F93CF93DF93D091420227
:100AF000D13208F0D7C0182FC09141020E94BC0229
:100B00006B017C018091190281116BC082E080939E
:100B10001902109318028FEF809317021092160299
:100B2000D0931502A1E2B2E0E5EFF1E080E0D81346
:100B300091C01092F4018091F401CC0FC82BC093A6
:100B4000F4018091F301813009F088C01092F30123
:100B50000E94BC026B017C018091F4018093BB0078
:100B600080911B0290911C02A0911D02B0911E0267
:100B7000892B8A2B8B2BA1F00E94BC0200911B02B7
:100B800010911C0220911D0230911E026C197D09EA
:100B90008E099F09061717072807390708F442C06E
:100BA0008091BC0083FDD8CF85EC8093BC000E946F
:100BB000BC026B017C0180911902823009F450C0A3
:100BC000809117028F3F09F46FC080911702803225
:100BD00009F46CC080911702803309F469C084E085
:100BE00026C080911B0290911C02A0911D02B09121
:100BF0001E02892B8A2B8B2B09F484CF0E94BC0206
:100C000080901B0290901C02A0901D02B0901E02CA
:100C10006C197D098E099F0986169706A806B906E4
:100C200008F070CF80911A020E94490585E0109269
:100C300020021092420210921F02DF91CF911F9169
:100C40000F91FF90EF90DF90CF90BF90AF909F906B
:100C50008F9008959D9191938F5F69CF85EEA5CF79
:100C600080911B0290911C02A0911D02B0911E0266
:100C7000892B8A2B8B2B09F49ECF0E94BC020091FA
:100C80001B0210911C0220911D0230911E026C1952
:100C90007D098E099F09061717072807390708F0ED
:100CA0008ACFC0CF81E0C3CF80E0C1CF82E0BFCF89
:100CB00083E0BDCFFC01248131E030931F022093FB
:100CC000410210922002109242028385682B70E04C
:100CD00085E093E00E94FC0481E00C946A0508958D
:100CE000E091B5018091B401E81730F4F0E0EA54E6
:100CF000FE4F808190E008958FEF9FEF08959091CF
:100D0000B5018091B4012FEF3FEF981748F4E92F18
:100D1000F0E0EA54FE4F208130E09F5F9093B501F0
:100D2000C90108958091B4019091B501891B990B77
:100D30000895CF92DF92EF92FF920F931F93CF937C
:100D4000DF937C01CB018A0120911F02222389F0CD
:100D5000EB016B01C40ED51ECC15DD0569F0699160
:100D6000D701ED91FC910190F081E02DC70109952B
:100D7000F3CF642F0E940405C801DF91CF911F912A
:100D80000F91FF90EF90DF90CF900895CF93DF9376
:100D90001F92CDB7DEB7698320911F022223F9F09D
:100DA00020914202203258F021E030E0FC013383F0
:100DB000228390E080E00F90DF91CF9108958091A1
:100DC0002002E82FF0E0EF5DFD4F998190838F5F67
:100DD000809320028093420281E090E0ECCF61E0BA
:100DE000CE0101960E940405F7CF90E080E00895BF
:100DF000CF93809100018630B9F08F3F61F16AE0B6
:100E000070E080E090E00E94E10282E00E94140223
:100E1000892B41F480910901853008F0DDC08F5F96
:100E200080930901CF910895E2E6F1E0C491C7FDF6
:100E3000E6CF61E086E00E946B02CC2309F479C022
:100E4000C23009F08EC08091B100887F84608093A9
:100E5000B1008BE9ADC086E080930001E2E6F1E0ED
:100E6000C491CF3F61F2C13021F150F0C23009F49A
:100E70003EC0C7FDC4CF61E086E00E946B02E0CFB8
:100E800014BC15BC84B5826084BD85B5816085BD08
:100E9000EAE4F3E0E491F0E0EE0FFF1FE05DFC4FC9
:100EA00085919491EEE5F3E0E491E0935B01C0E07D
:100EB000C0CF1092800010928100809181008860E4
:100EC0008093810080918100816080938100EAE4B9
:100ED000F3E0E491F0E0EE0FFF1FE05DFC4F859141
:100EE0009491EEE5F3E0E491E0935A01A2CF1092E1
:100EF000B0001092B1008091B00082608093B00089
:100F00008091B10081608093B100EAE4F3E0E49164
:100F1000F0E0EE0FFF1FE05DFC4F85919491909300
:100F2000AA018093A901EEE5F3E0E491E093AB011F
:100F300080CF85B5887F836085BD8BE987BD80EADA
:100F400090E0A0E0B0E08093600190936101A093F5
:100F50006201B093630180916E00826080936E00A5
:100F60004ECFC130F1F480918100887F8160809301
:100F700081008FE097E2909389008093880080EA57
:100F800090E0A0E0B0E080935C0190935D01A093BD
:100F90005E01B0935F0180916F00826080936F006B
:100FA0002ECFC23021F0C1112ACF8FE0C7CF8FE002
:100FB0008093B30080EA90E0A0E0B0E08093AC01C1
:100FC0009093AD01A093AE01B093AF0180917000FA
:100FD00082608093700013CF81E022CF0F931F9324
:100FE000CF938C01C62F0E945A066C2F6460C801F3
:100FF0000E945A066C2F6B7FC8010E945A0683EC30
:1010000090E00197F1F7CF911F910F9108950F9301
:101010001F93CF93DF938C01D62FC42F607F642B57
:101020000E94EE0780E1D89FB00111246C2BC8010B
:10103000DF91CF911F910F910C94EE07CF93DF9327
:10104000CDB7DEB728970FB6F894DEBF0FBECDBF81
:1010500098E0EAE0F1E0DE01119601900D929A9598
:10106000E1F790912D03691710F06FEF690F262FAC
:1010700030E0220F331F41E050E04C0F5D1F240F82
:10108000351FF9016081680F606840E085E293E0F8
:1010900028960FB6F894DEBF0FBECDBFDF91CF917B
:1010A0000C94070841E00E94070881E090E0089551
:1010B000FB0101900020E9F73197AF01461B570B68
:1010C000DC01ED91FC910280F381E02D09940F93F6
:1010D0001F93CF93DF938C01D0E0C0E0F801EC0FB9
:1010E000FD1F6491662341F083E492E00E94B70300
:1010F000892B11F02196F2CF62E471E083E492E053
:101100000E9458088C0F9D1FDF91CF911F910F9166
:1011100008958F929F92AF92BF920F931F93CF9398
:10112000DF93CDB7DEB7A1970FB6F894DEBF0FBE41
:10113000CDBF19A2423008F44AE08E010F5D1F4F67
:10114000842E912CB12CA12CA50194010E9466152E
:10115000E62FB901CA01EA3004F5E05DD801EE934B
:101160008D01232B242B252B79F790E080E010971D
:1011700029F0BD0185E293E00E945808A1960FB6C0
:10118000F894DEBF0FBECDBFDF91CF911F910F91BD
:10119000BF90AF909F908F900895E95CDFCFCF9282
:1011A000DF92EF92FF926C01990FEE08FF08F7FEB5
:1011B00016C041E06DE285E293E00E9407086627D1
:1011C0007727CB016C197D098E099F094AE00E949F
:1011D00089080196FF90EF90DF90CF9008954AE044
:1011E000C701B601FF90EF90DF90CF900C94890873
:1011F00085ED8093BC0080911B0290911C02A09110
:101200001D02B0911E020796A11DB11D23E0B695E7
:10121000A795979587952A95D1F72091BC0024FD35
:1012200003C010921902089540911B0250911C02B4
:1012300060911D0270911E02452B462B472B69F3CE
:101240000097A105B10541F02AE22A95F1F700C007
:101250000197A109B109E1CF80911A020C944905C7
:101260001F920F920FB60F9211242F933F938F93DB
:101270009F93AF93BF938091EB019091EC01A0916C
:10128000ED01B091EE013091EA0123E0230F2D37FB
:1012900058F50196A11DB11D2093EA018093EB0141
:1012A0009093EC01A093ED01B093EE018091EF01DA
:1012B0009091F001A091F101B091F2010196A11D70
:1012C000B11D8093EF019093F001A093F101B093D1
:1012D000F201BF91AF919F918F913F912F910F900C
:1012E0000FBE0F901F90189526E8230F0296A11DA0
:1012F000B11DD2CF1F920F920FB60F9211242F93D0
:101300003F934F935F936F937F938F939F93AF938D
:10131000BF93EF93FF93E0910301F09104010995CE
:10132000FF91EF91BF91AF919F918F917F916F91BD
:101330005F914F913F912F910F900FBE0F901F9093
:1013400018951F920F920FB60F9211242F933F936F
:101350004F935F936F937F938F939F93AF93BF93BD
:10136000EF93FF93E0910101F09102010995FF9144
:10137000EF91BF91AF919F918F917F916F915F910D
:101380004F913F912F910F900FBE0F901F90189586
:101390001F920F920FB60F9211242F933F934F93EA
:1013A0005F936F937F938F939F93AF93BF93EF93CD
:1013B000FF938091AC019091AD01A091AE01B091ED
:1013C000AF01892B8A2B8B2BD1F19091AB01E0914E
:1013D000A901F091AA018081892780838091AC01C5
:1013E0009091AD01A091AE01B091AF011816190610
:1013F0001A061B069CF48091AC019091AD01A0915E
:10140000AE01B091AF010197A109B1098093AC0180
:101410009093AD01A093AE01B093AF01FF91EF9116
:10142000BF91AF919F918F917F916F915F914F91FC
:101430003F912F910F900FBE0F901F9018958091A4
:101440000001E2E6F1E0E4919FEF90930001E130CA
:1014500051F030F0E23069F060E00E943D02DECFF2
:1014600010926E00F9CF90916F009D7F90936F0066
:10147000F3CF909170009D7F9093700091E09093D6
:10148000B0009091B100987F94609093B100109259
:10149000B300E2CF1F920F920FB60F9211242F9339
:1014A0003F934F935F936F937F938F939F93AF93EC
:1014B000BF93EF93FF9383E492E00E949503FF9123
:1014C000EF91BF91AF919F918F917F916F915F91BC
:1014D0004F913F912F910F900FBE0F901F90189535
:1014E0001F920F920FB60F9211242F938F939F93F9
:1014F000EF93FF93E0915302F09154028081E091C9
:101500005902F0915A0282FD1BC0908180915C02C9
:101510008F5F8F7320915D02821741F0E0915C0232
:10152000F0E0ED5BFD4F958F80935C02FF91EF91B2
:101530009F918F912F910F900FBE0F901F90189534
:101540008081F4CF1F920F920FB60F9211242F9328
:101550003F934F935F936F937F938F939F93AF933B
:10156000BF93CF93DF93EF93FF938091A801C09136
:101570000403D0E087FF24C01092850010928400FD
:101580008091A8018F5F8093A8018091A801082E07
:10159000000C990B8C179D0724F48091A8018C30C6
:1015A000C4F18091840090918500049680349C4918
:1015B00008F47AC08091840090918500049676C0EA
:1015C0008091A801082E000C990B8C179D07C4F67A
:1015D000E091A8018E2FEE0F990BFC01EE0FFF1F7B
:1015E000E80FF91FE052FD4F808186FFC9CFE091DF
:1015F000A8018E2FEE0F990BFC01EE0FFF1FE80FD5
:10160000F91FE052FD4F808160E08F730E943D0220
:10161000B7CF2091840030918500E091A8018E2FF2
:10162000EE0F990BFC01EE0FFF1FE80FF91FE052C0
:10163000FD4F81819281820F931F90938900809347
:101640008800E091A8018E2FEE0F990BFC01EE0FA0
:10165000FF1FE80FF91FE052FD4F808186FF11C088
:10166000E091A8018E2FEE0F990BFC01EE0FFF1FEA
:10167000E80FF91FE052FD4F808161E08F730E94F7
:101680003D02FF91EF91DF91CF91BF91AF919F917B
:101690008F917F916F915F914F913F912F910F901B
:1016A0000FBE0F901F90189580E49CE990938900DD
:1016B000809388008FEF8093A801E3CF1F920F9251
:1016C0000FB60F9211242F933F934F935F936F9315
:1016D0007F938F939F93AF93BF93EF93FF938091EB
:1016E000B900887F803609F44AC0F0F5883209F4E1
:1016F000A7C018F5803109F49BC0B8F4882309F419
:10170000F9C0883009F494C0FF91EF91BF91AF9177
:101710009F918F917F916F915F914F913F912F9109
:101720000F900FBE0F901F901895883109F488C054
:10173000803251F78093170214C0803409F49DC0A1
:1017400040F48033B9F38833F9F68093170285ECBF
:10175000B0C0803509F485C0883509F496C0883456
:1017600099F60E94F808D0CF883909F48CC038F572
:10177000883729F050F4883611F0803729F683E055
:10178000809319021092A70157C0883809F47BC0D2
:10179000803919F0803809F0B7CF8091A7018032E5
:1017A00008F071C0E091A70181E08E0F8093A7013E
:1017B0008091BB00F0E0E957FE4F80833DC0803B45
:1017C00039F0E0F4803A09F479C0883A09F09CCF06
:1017D00084E0809319021092860110928501E091B5
:1017E000B201F091B30109958091850181110FC07B
:1017F00081E0809385011092650109C0803C09F465
:10180000A6CF883C09F4A3CF883B09F07DCFE091B7
:10181000860181E08E0F80938601F0E0EB59FE4F48
:1018200080818093BB00909186018091850129C0C1
:101830008091F4018093BB0085EC8093BC0064CF61
:101840009091160280911502981758F5E0911602B2
:1018500081E08E0F80931602F0E0EB50FE4F808106
:10186000E9CFE091160281E08E0F809316028091FD
:10187000BB00F0E0EB50FE4F808390911602809108
:1018800015029817C8F285E8D8CFE091160281E0DA
:101890008E0F809316028091BB00F0E0EB50FE4F5C
:1018A00080838091180281115CCF81E08093F301E5
:1018B00084EA8093BC001092190226CF85EC8093B5
:1018C000BC00109219028091A701803230F4E0919F
:1018D000A701F0E0E957FE4F10826091A70170E088
:1018E000E091B001F091B10187E891E00995109283
:1018F000A7010ACF1092170234CF1092460210921D
:10190000450288EE93E0A0E0B0E080934702909318
:101910004802A0934902B0934A0226E131E0309395
:1019200044022093430225EC30E030935002209390
:101930004F0224EC30E0309352022093510220EC0D
:1019400030E0309354022093530221EC30E0309386
:1019500056022093550222EC30E030935802209337
:10196000570226EC30E030935A022093590210922D
:101970005C0210925D0210925E0210925F02109261
:101980000803109207038093090390930A03A0931E
:101990000B03B0930C0388E291E0909306038093CD
:1019A000050310922803109227038AE391E0909395
:1019B00026038093250387E28093290380E18093A7
:1019C0002E0382E080932F031092300385E48093EE
:1019D00018038AE999E9A9E9BFE380931903909371
:1019E0001A03A0931B03B0931C0310921E031092C2
:1019F0001D0383E28093170385E093E09093200317
:101A000080931F03809104038C3048F591E0980F78
:101A1000909304038093140390E0FC01EE0FFF1FEA
:101A2000E80FF91FE052FD4F88EB9BE09283818322
:101A3000809104038C30B8F491E0980F90930403E4
:101A40008093110390E0FC01EE0FFF1FE80FF91FD8
:101A5000E052FD4F88EB9BE09283818308958FEFE6
:101A600080931403E5CF8FEF809311030895CF93F4
:101A7000DF93CDB7DEB72B970FB6F894DEBF0FBE5E
:101A8000CDBF789484B5826084BD84B5816084BD07
:101A900085B5826085BD85B5816085BD80916E000C
:101AA000816080936E00109281008091810082603D
:101AB000809381008091810081608093810080917A
:101AC00080008160809380008091B1008460809369
:101AD000B1008091B00081608093B00080917A0065
:101AE000846080937A0080917A00826080937A008B
:101AF00080917A00816080937A0080917A0080687A
:101B000080937A001092C100E0915302F091540248
:101B100082E08083E0914F02F09150021082E091C8
:101B20005102F09152028FEC808310925B02E0919F
:101B30005702F091580286E08083E0915502F091BF
:101B40005602808180618083E0915502F0915602B7
:101B5000808188608083E0915502F09156028081F7
:101B600080688083E0915502F091560280818F7DDC
:101B700080831092B5011092B4011092200210924D
:101B800042020E942B0584E193E09093B30180937D
:101B9000B20185E193E09093B1018093B00123E21B
:101BA0002093170380911F039091200301E000937D
:101BB0001F0220934102DC01ED91FC910190F08124
:101BC000E02D60E1099581E00E946A05182F6AE026
:101BD00070E080E090E00E94E102123009F491C0D0
:101BE00048F4112391F086ED92E0113059F083E32F
:101BF00092E008C08FE692E0133021F083E592E096
:101C00001430A9F70E94670882C080E190E09093A9
:101C10001E0380931D032FB7F8948091EB019091E0
:101C2000EC01A091ED01B091EE012FBF8093210353
:101C300090932203A0932303B093240380911F0366
:101C4000909120032091170300931F0220934102DB
:101C5000109220021092420262E470E00E94FC04A2
:101C600081E00E946A05182F80911F039091200344
:101C70002091170300931F0220934102109220022B
:101C80001092420265E670E00E94FC0481E00E942E
:101C90006A05182B80911F03909120032091170350
:101CA00000931F02209341021092200210924202E0
:101CB00060911D0370911E030E94FC0481E00E944C
:101CC0006A05182B6AE070E080E090E00E94E10273
:101CD000123009F41FC150F41123B1F086E092E0F4
:101CE000113009F48FCF83E691E08CCF8FE991E03A
:101CF000133009F487CF83E891E0143009F482CFE0
:101D0000F2CF81EA92E07ECF85E48093180369E008
:101D100070E084E193E00E94A0046AE070E081E159
:101D200093E00E94A00460E08EE00E946B0260E0FD
:101D30008FE00E946B0260E080E10E946B0260E035
:101D400081E10E946B0262E082E00E946B0288EFF8
:101D500096E09093020180930101809169008C7F4D
:101D6000826080936900E89A1092B5011092B401E4
:101D700010922002109242020E942B0584E193E00F
:101D80009093B3018093B20185E193E09093B10108
:101D90008093B00110922A0380912F03823018F0B3
:101DA00098E090932A0380932D0362E370E080E033
:101DB00090E00E94E1026091300385E293E00E948E
:101DC0005A0668EE73E080E090E00E94E10260E372
:101DD00085E293E00E94EE070BE416E4C801019748
:101DE000F1F760E385E293E00E94EE07C8010197F6
:101DF000F1F760E385E293E00E94EE0783E592E06D
:101E00000197F1F760E285E293E00E94EE076091AE
:101E10002A03606240E085E293E00E94070884E0C4
:101E200080932B0340E06CE085E293E00E9407087A
:101E300040E061E085E293E00E9407080BE31FE1C8
:101E4000C8010197F1F782E080932C0340E066E03F
:101E500085E293E00E94070840E062E085E293E0BB
:101E60000E940708C8010197F1F788E080933003CA
:101E700060E085E293E00E945A066091070170914C
:101E8000080184E193E00E94240468EE73E080E09E
:101E900090E00E94E102609105017091060181E1EC
:101EA00093E00E94240468EE73E080E090E00E94DA
:101EB000E102FE0131964F018EE00E94A7025C0113
:101EC0008FE00E94A7028C0180E10E94A7026C01B2
:101ED00081E10E94A7027C01C501801B910B97FF45
:101EE00003C091958195910940970CF45FC00A1544
:101EF0001B050CF044C020910901809107019091CD
:101F00000801821B910997FD08C0909308018093F6
:101F1000070107C081ED91E075CE10920801109283
:101F20000701609107017091080184E193E00E942C
:101F300024046AE070E080E090E00E94E102609199
:101F4000050170910601C6018E199F0997FF03C014
:101F500091958195910940970CF438C180910901C0
:101F600090E0CE14DF040CF424C1681B790B6A30B6
:101F700071052CF1709306016093050126C0A0162F
:101F8000B106ECF68091090120910701309108011A
:101F9000820F932F911D853B91050CF4B6CF24EB56
:101FA00030E03093080120930701BBCF6091070117
:101FB0007091080184E193E00E942404C0CF8AE07C
:101FC00090E0909306018093050160910501709166
:101FD000060181E193E00E9424046AE070E080E061
:101FE00090E00E94E10280911D0390911E03892BD5
:101FF00009F0F1C083E093E00E946708C12CD12C66
:10200000E12C50ECF52EC701B6010E940E166B01B3
:102010007093E9016093E801D401E5E01D92EA952F
:10202000E9F761E087E00E946B0260E087E00E94D0
:102030003D0264E170E080E090E00E94E10261E036
:1020400087E00E943D028BE990E00197F1F760E0A4
:1020500087E00E946B0201E510E087E00E94140215
:10206000892B09F0FBC101501109B9F78091D80102
:102070009091D9019093E7018093E6018091D60178
:102080009091D7019093E5018093E401B60190E02F
:1020900080E00E943D16840120E04BEF0E94A812D0
:1020A0006091E6017091E701072E000C880B990BF7
:1020B0000E943F168E01085F1F4F20E04EEF0E94E6
:1020C000A8126091E4017091E501072E000C880BC5
:1020D000990B0E943F160250110920E04EEF0E941A
:1020E000A81260E080E00E941E0865E471E085E2CD
:1020F00093E00E94580860E086E00E941E08B40148
:1021000085E293E00E94580860E08BE00E941E0880
:102110006CE471E085E293E00E94580861E080E0A1
:102120000E941E088091E6019091E7010E94CF086D
:1021300061E082E00E941E0860E571E085E293E0C4
:102140000E94580861E085E00E941E088091E40129
:102150009091E5010E94CF0861E087E00E941E088F
:1021600062E571E085E293E00E94580861E08BE04F
:102170000E941E0864E571E085E293E00E94580821
:1021800061E08FE00E941E086091090170E090E01C
:1021900080E04AE00E94890880E090E0892B09F401
:1021A0008BCE0E948103882309F486CE0E94000012
:1021B00083CE680F791F6B3571050CF4DBCEAAE571
:1021C000B0E0B0930601A0930501FFCE81E193E05A
:1021D0000E94240408CF109117030E94BC026B01D7
:1021E0007C0180911902811165C0B1E0B0931902A0
:1021F000B09318028FEF8093170210921602B093DB
:102200001502B093F4018091F401110F182B109373
:10221000F4018091F301813009F0FAC01092F301CA
:102220000E94BC026B017C018091F4018093BB0091
:1022300080911B0290911C02A0911D02B0911E0280
:10224000892B8A2B8B2BA1F00E94BC0200911B02D0
:1022500010911C0220911D0230911E026C197D0903
:102260008E099F09061717072807390708F443C086
:102270008091BC0083FDD8CF85EC8093BC000E9488
:10228000BC026B017C0180911902813009F4C2C04B
:1022900080911602823008F0DFC080911602E5EFCF
:1022A000F1E0A6EBB1E090E0981751F121912D9368
:1022B0009F5FFACF80911B0290911C02A0911D029A
:1022C000B0911E02892B8A2B8B2B09F48ACF0E9496
:1022D000BC0240901B0250901C0260901D02709046
:1022E0001E026C197D098E099F094616570668065D
:1022F000790608F076CF80911A020E94490580E0A5
:102300001092B5018093B401C12CD12C40E8E42E89
:102310004FEBF42E823019F580911F03909120032A
:10232000DC01ED91FC910284F385E02D09958B870A
:102330001A8680911F0390912003DC01ED91FC919E
:102340000284F385E02D0995EA85FB858E2B9F2B72
:10235000BC0190E080E00E943D166B017C012FB72C
:10236000F8948091EB019091EC01A091ED01B09176
:10237000EE012FBF8093210390932203A0932303A8
:10238000B093240320E030E040E85FEBC701B601E2
:102390000E949715882309F436CE6091180365349E
:1023A000A9F070E090E080E00E943D169B01AC0136
:1023B00060E070E08AE892E40E949C159B01AC0109
:1023C000C701B6010E94EF166B017C0180911D03CD
:1023D00090911E038132910511F0419751F420E054
:1023E00030E040E05FE3C701B6010E94EF166B01E9
:1023F0007C012091190330911A0340911B035091E5
:102400001C03C701B6010E949C156B017C01FBCD2A
:1024100085EE33CF80911B0290911C02A0911D028A
:10242000B0911E02892B8A2B8B2B09F42CCF0E9492
:10243000BC0200911B0210911C0220911D023091E0
:102440001E026C197D098E099F09061717072807B8
:10245000390708F018CF4FCF82E021CF01E510E017
:1024600087E00E941402019721F401501109C1F77D
:10247000FDCD08E210E037E0332E212C21E1A22E21
:1024800027E2B22E87E00E941402892B29F4F1E0A2
:10249000AF1AB108B9F7EACD0E94BC022B013C018A
:1024A00091E1A92E97E2B92E87E00E9414020197CC
:1024B00029F421E0A21AB108B9F7D8CD0E94BC02D4
:1024C00064197509860997096932710581059105B5
:1024D00068F0F401E20DF11D808121E030E0032C71
:1024E00001C0220F0A94EAF7822B808331102EC09C
:1024F000239487E0382E0150110909F0BFCF2981BC
:1025000030E03093D7012093D6018B8190E09093F7
:10251000D9018093D8013093DB012093DA012A811D
:1025200030E03093DD012093DC019093DF01809354
:10253000DE018C8190E09093E1018093E0018D8138
:1025400090E09093E3018093E20190CD3A94D3CF51
:10255000EF920F931F93CF93DF93E80134E047FD91
:1025600034E1042E000C550B57FF03C051954195E3
:102570005109E32E022F242FAE010E94C612CE0174
:10258000DF91CF911F910F91EF900895A9E0B0E0F6
:10259000ECECF2E10C9435156A01F22EB02E102FFE
:1025A000FBE3AF2EA01608F41BE31F5F012F27E00B
:1025B000AE014F5F5F4F0E942514BC018981982FA7
:1025C0009970913009F43FC09BE2E1FC04C09E2D5C
:1025D0009170E0FC3AC05E2D5071E82FE87083FFE7
:1025E00046C084E0911101C083E0EF2DE81B8F15F8
:1025F00008F0E0E0D6018E2F20E2552351F1992317
:1026000029F0D6019C93C60101966C0196012D5FBD
:102610003F4FE2FE24C08EE4D6018C9391E41196E4
:102620009C93119712968C93D9018E2F90E2811171
:102630001BC0E20FF32FF11D10828EEF9FEF299642
:10264000ECE00C9451159DE2C6CF90E2C4CF2D93DF
:1026500081508111FCCFCE0ED11CE0E0D0CF8EE6B0
:10266000D6018C9391E6DBCF9D938150E0CF482F2C
:10267000447082FF3DC084E0911101C083E08F155A
:1026800010F4EF2DE81BD6018E2F20E2552309F11F
:10269000992329F0D6019C93C60101966C019601FD
:1026A0002D5F3F4FE2FE1BC089E4D6018C938EE480
:1026B00011968C93119786E412968C93D9018E2FE4
:1026C00090E2882309F4B5CF9D938150FACF2D93E2
:1026D00081508111FCCFCE0ED11CE0E0D9CF89E62C
:1026E000D6018C938EE611968C93119786E6E4CFF3
:1026F0009B0177FF02C030E020E0A1E0B0E0911143
:1027000002C0B0E0A0E0F9013196AE0FBF1F8B2CE4
:10271000912CBB2009F461C05401EFEFAE1ABE0A40
:10272000AA0DBB1DFA161B0619F014F04F2D4A1BFB
:10273000511188C0E3FC59C07601A42FB0E2A11169
:102740004FC0C40ED11C992309F45BC040E0D601F0
:102750001196F60190836D01552309F448C0012FAD
:10276000060F9A81582F507184FF03C0913309F4EA
:10277000015010160CF047C0093008F008E0EEE2F6
:10278000FE2E5B01A01AB1088501919481949108F5
:102790002F3F320729F4D601FC92F60131966F01E2
:1027A0006217730794F1021713077CF5DB01A21B74
:1027B000B30BAA24A394B12CAC0EBD1EAA0DBB1D55
:1027C00011968C9121503109D601119628153905A1
:1027D000F4F0F60180836D01DBCFB12CA12CA0CFEA
:1027E000F701B1937F01A150AACF9111B0CFD601CB
:1027F000942F50E302C05D9391509111FCCFC40E11
:10280000D11C40E0ACCF01E0BACF80E3DBCF621750
:10281000730731F4963388F4953311F4552369F036
:10282000F6018083FD01842F90E2811108C0A40F7E
:10283000B11D1C9290E080E002CF81E3F1CF919333
:102840008150F3CF911183CF8ACF283008F027E051
:102850003327DA01990F311D87FD916000966105DC
:10286000710539F432602E5F3D9330E32A95E1F72C
:1028700008959F3F30F080387105610509F03C5F95
:102880003C5F3D93913008F08068911DDF93CF93BA
:102890001F930F93FF92EF92192F987F9695E92F30
:1028A00096959695E90FFF27EE53FF4F992733270B
:1028B000EE24FF24A701E70105900894079428F46B
:1028C000360FE71EF81E491F511D660F771F881F20
:1028D000991F0694A1F70590079428F4E70EF81EB7
:1028E000491F561FC11D770F881F991F661F069429
:1028F000A1F70590079428F4F80E491F561FC71F2B
:10290000D11D880F991F661F771F0694A1F70590A8
:10291000079420F4490F561FC71FD81F990F661F31
:10292000771F881F0694A9F784911095177041F0BE
:10293000D695C79557954795F794E7941A95C1F79B
:10294000E8E6F0E0689415901591359165919591C0
:1029500005907FE27395E118F10A430B560BC90B02
:10296000D009C0F7E10CF11E431F561FC91FD01D2F
:102970007EF4703311F48A95E6CFE894015030F07C
:10298000080F0AF40027021708F4202F2395022FBE
:102990007A3328F079E37D932A95E9F710C07D9387
:1029A0002A9589F606949795679537951795179404
:1029B000E118F10A430B560BC90BD00998F0239587
:1029C0007E9173957A3308F070E37C932013B8F707
:1029D0007E9170617D9330F0839571E37D9370E318
:1029E0002A95E1F71124EF90FF900F911F91CF915D
:1029F000DF91992787FD90950895052E97FB1EF48A
:102A000000940E94141557FD07D00E94661507FC1C
:102A100003D04EF40C9414155095409530952195A3
:102A20003F4F4F4F5F4F08959095809570956195FA
:102A30007F4F8F4F9F4F08950E948815A59F900D3F
:102A4000B49F900DA49F800D911D11240895B7FF90
:102A50000C941C150E941C15821B930B08952F9239
:102A60003F924F925F926F927F928F929F92AF921E
:102A7000BF92CF92DF92EF92FF920F931F93CF936B
:102A8000DF93CDB7DEB7CA1BDB0B0FB6F894DEBF02
:102A90000FBECDBF09942A88398848885F846E8428
:102AA0007D848C849B84AA84B984C884DF80EE8072
:102AB000FD800C811B81AA81B981CE0FD11D0FB67B
:102AC000F894DEBF0FBECDBFED010895A1E21A2E2E
:102AD000AA1BBB1BFD010DC0AA1FBB1FEE1FFF1FC2
:102AE000A217B307E407F50720F0A21BB30BE40B12
:102AF000F50B661F771F881F991F1A9469F7609559
:102B00007095809590959B01AC01BD01CF01089512
:102B1000A29FB001B39FC001A39F700D811D11241E
:102B2000911DB29F700D811D1124911D08950E9469
:102B30007A1608F481E008950E94B0150C94B51639
:102B40000E94AE1658F00E94A71640F029F45F3F8D
:102B500029F00C949E1651110C94E9160C94A416AD
:102B60000E94C61668F39923B1F3552391F3951B80
:102B7000550BBB27AA2762177307840738F09F5F9E
:102B80005F4F220F331F441FAA1FA9F335D00E2E0B
:102B90003AF0E0E832D091505040E695001CCAF778
:102BA0002BD0FE2F29D0660F771F881FBB1F26173B
:102BB00037074807AB07B0E809F0BB0B802DBF0112
:102BC000FF2793585F4F3AF09E3F510578F00C94E1
:102BD0009E160C94E9165F3FE4F3983ED4F3869575
:102BE00077956795B795F7959F5FC9F7880F911D02
:102BF0009695879597F90895E1E0660F771F881FEE
:102C0000BB1F621773078407BA0720F0621B730BA0
:102C1000840BBA0BEE1F88F7E09508950E94CE163C
:102C200088F09F5798F0B92F9927B751B0F0E1F08D
:102C3000660F771F881F991F1AF0BA95C9F714C03D
:102C4000B13091F00E94E816B1E008950C94E816B6
:102C5000672F782F8827B85F39F0B93FCCF3869576
:102C600077956795B395D9F73EF4909580957095D3
:102C700061957F4F8F4F9F4F0895E89409C097FB50
:102C80003EF490958095709561957F4F8F4F9F4F43
:102C90009923A9F0F92F96E9BB279395F695879587
:102CA00077956795B795F111F8CFFAF4BB0F11F44A
:102CB00060FF1BC06F5F7F4F8F4F9F4F16C08823F1
:102CC00011F096E911C0772321F09EE8872F762F27
:102CD00005C0662371F096E8862F70E060E02AF068
:102CE0009A95660F771F881FDAF7880F9695879554
:102CF00097F90895990F0008550FAA0BE0E8FEEF29
:102D000016161706E807F907C0F012161306E407AF
:102D1000F50798F0621B730B840B950B39F40A26A8
:102D200061F0232B242B252B21F408950A2609F486
:102D3000A140A6958FEF811D811D089597F99F678A
:102D400080E870E060E008959FEF80EC0895002433
:102D50000A941616170618060906089500240A9400
:102D600012161306140605060895092E0394000C86
:102D700011F4882352F0BB0F40F4BF2B11F460FF15
:102D800004C06F5F7F4F8F4F9F4F089557FD90583E
:102D9000440F551F59F05F3F71F04795880F97FB1F
:102DA000991F61F09F3F79F08795089512161306D9
:102DB0001406551FF2CF4695F1DF08C01616170608
:102DC0001806991FF1CF869571056105089408953D
:102DD000E894BB2766277727CB0197F908950E94CF
:102DE00002170C94B5160E94A71638F00E94AE1672
:102DF00020F0952311F00C949E160C94A416112427
:102E00000C94E9160E94C61670F3959FC1F3950FB6
:102E100050E0551F629FF001729FBB27F00DB11D5E
:102E2000639FAA27F00DB11DAA1F649F6627B00DEE
:102E3000A11D661F829F2227B00DA11D621F739FD7
:102E4000B00DA11D621F839FA00D611D221F749FE5
:102E50003327A00D611D231F849F600D211D822F2C
:102E6000762F6A2F11249F5750409AF0F1F0882353
:102E70004AF0EE0FFF1FBB1F661F771F881F915080
:102E80005040A9F79E3F510580F00C949E160C947B
:102E9000E9165F3FE4F3983ED4F3869577956795FE
:102EA000B795F795E7959F5FC1F7FE2B880F911DAA
:102EB0009695879597F90895991B79E004C0991F15
:102EC000961708F0961B881F7A95C9F78095089584
:102ED000EE0FFF1F0590F491E02D0994F894FFCFB9
:102EE000FF160316030A005A0001000040001400F8
:102EF000540000000000B7031703440304047503E3
:102F00005303670300000000C6069906F5066F0626
:102F100092067F0670060000000052081703F506AF
:102F200003050D0A004C696768743A006C757800F7
:0A2F3000430025007265733A0000AB
:107E0000112484B714BE81FFF0D085E080938100F7
:107E100082E08093C00088E18093C10086E0809377
:107E2000C20080E18093C4008EE0C9D0259A86E02C
:107E300020E33CEF91E0309385002093840096BBD3
:107E4000B09BFECF1D9AA8958150A9F7CC24DD24C4
:107E500088248394B5E0AB2EA1E19A2EF3E0BF2EE7
:107E6000A2D0813461F49FD0082FAFD0023811F036
:107E7000013811F484E001C083E08DD089C08234E0
:107E800011F484E103C0853419F485E0A6D080C0E4
:107E9000853579F488D0E82EFF2485D0082F10E0AE
:107EA000102F00270E291F29000F111F8ED06801E7
:107EB0006FC0863521F484E090D080E0DECF843638
:107EC00009F040C070D06FD0082F6DD080E0C81688
:107ED00080E7D80618F4F601B7BEE895C0E0D1E017
:107EE00062D089930C17E1F7F0E0CF16F0E7DF06D8
:107EF00018F0F601B7BEE89568D007B600FCFDCFD4
:107F0000A601A0E0B1E02C9130E011968C91119780
:107F100090E0982F8827822B932B1296FA010C0160
:107F200087BEE89511244E5F5F4FF1E0A038BF0790
:107F300051F7F601A7BEE89507B600FCFDCF97BE46
:107F4000E89526C08437B1F42ED02DD0F82E2BD052
:107F50003CD0F601EF2C8F010F5F1F4F84911BD097
:107F6000EA94F801C1F70894C11CD11CFA94CF0C13
:107F7000D11C0EC0853739F428D08EE10CD085E9AC
:107F80000AD08FE07ACF813511F488E018D01DD067
:107F900080E101D065CF982F8091C00085FFFCCF94
:107FA0009093C60008958091C00087FFFCCF809118
:107FB000C00084FD01C0A8958091C6000895E0E648
:107FC000F0E098E1908380830895EDDF803219F02E
:107FD00088E0F5DFFFCF84E1DECF1F93182FE3DFCA
:107FE0001150E9F7F2DF1F91089580E0E8DFEE27F6
:047FF000FF270994CA
:027FFE00040479
:00000001FF
